:020000040800F2
:100000000000012095270008E5780008F178000835
:10001000F97800080179000809790008000000005B
:100020000000000000000000000000001D79000832
:100030001179000800000000297900087D3D0008C2
:1000400035790008417900084D7900085979000890
:1000500065790008717900084D690008AD690008EC
:100060000D6A0008196A0008256A00087D790008F1
:100070008979000895790008A1790008AD79000810
:10008000B9790008C5790008D1790008DD79000840
:10009000E9790008F5790008017A0008316A00085A
:1000A0000D7A0008197A0008257A0008317A0008CC
:1000B000D543000861450008B57A0008E17A0008D8
:1000C00091810008E5810008F1810008FD810008A8
:1000D00009820008595300086D8D0008998E0008A8
:1000E000816B000815820008218200082D8200081B
:1000F0003982000845820008518200085D820008AC
:100100006982000875820008818200088D820008DB
:1001100099820008A5820008B1820008BD8200080B
:10012000C9820008D5820008E1820008098400081D
:1001300040F2FC030146C2F20003186800F008B860
:1001400040F2FC030146C2F20003186800F040BD13
:100150002DE9F04F01F10B04162C83B0064631D97E
:1001600024F00704E30F8C422CBF194643F0010131
:10017000002930D1304600F0EFFBB4F5FC7F2FD2E0
:100180004FEAD40C40F2F015C2F2000505EBCC02A8
:100190002F46D368934200F02D825C6803F1080873
:1001A000DA68304624F0030499681B195C68CA6059
:1001B00044F0010491605C6000F0D0FB404603B065
:1001C000BDE8F08F002310248C422CBF194643F069
:1001D00001010029CED00C234FF000083360EDE779
:1001E0005FEA542C04BF4FEAD40C4FEACC0040F035
:1001F000868040F2F015C2F2000528182F46C36829
:10020000984206D10DE0002980F27981DB6898429E
:1002100007D05A6822F00302111B0F29F3DD0CF1FD
:10022000FF3C0CF1010CBD4A93689A4208BF786804
:1002300024D0586820F00300011B0F2900F3C0816F
:100240000029D260926080F29480B0F5007F80F047
:100250007781C0084FF0010ED7F8048007EBC0018A
:1002600080100EFA00F0D960D1F808E040EA0800EA
:100270007860C3F808E0CEF80C308B604FF0010EC8
:100280004FEAAC030EFA03FE86457DD810EA0E0F46
:1002900008D12CF0030C4FEA4E0E0CF1040C10EABE
:1002A0000E0FF8D007EBCC0AE146D046D8F80C0088
:1002B000804507D196E1002B80F2A681C068804579
:1002C00000F09081416821F003010B1B0F2BF2DD40
:1002D0008046C568011944F0010E58F8087F43F0C4
:1002E0000104C0F804E030464C60FD60AF60D160AE
:1002F0009160CA608A60CB5000F030FB5EE7BCF1D1
:10030000040F9EBF4FEA941C0CF1380C4FEACC004E
:100310007FF66FAFBCF1140F9CBF0CF15B0C4FEA82
:10032000CC007FF666AFBCF1540F9EBF4FEA143C81
:100330000CF16E0C4FEACC007FF65BAFBCF5AA7FE8
:100340009EBF4FEAD43C0CF1770C4FEACC007FF60D
:1003500050AF40F254539C4595BF4FEA944C4FF434
:100360007C700CF17C0C4FF07E0C98BF4FEACC00F7
:100370003FE71A1803F108083046536843F00103B9
:10038000536000F0EBFA19E7D7F80880D8F804308A
:1003900023F003094C45C4EB090294BF0023012359
:1003A0000F2AD8BF43F00103002B00F0B98040F6BC
:1003B000084AD5F80834C2F2000A3046B3F1FF3FCC
:1003C000DAF8002002F1100BA3441FBF0BF57E6B7F
:1003D0000BF11F0B2BF47E6B2BF01F0B594600F01B
:1003E0005FFBB0F1FF3F034600F0188108EB090105
:1003F000814200F21081DAF8042081425A44CAF89E
:10040000042000F03E81D5F808E440F2F015C2F275
:100410000005BEF1FF3F17BF8218C5F80804C1EB05
:100420000201CAF8041010F0070517BFC5F108054E
:100430004FF48055431905F5805503EB0B02304608
:1004400001931205120DAD1A294600F029FB019BFC
:10045000B0F1FF3F00F02C81C11A491941F00101B0
:10046000DAF80420B84540F6084BBB602A44C2F2D3
:10047000000B5960CAF8042017D0B9F10F0F40F2F1
:10048000E180A9F10C03D8F8045023F007030520FC
:1004900008EB03010F2B05F0010543EA0505C8F839
:1004A00004504860886000F2FB80DAF82C1040F6B7
:1004B0000843C2F200038A42DAF8301088BFDA62D9
:1004C00040F608438A42C2F2000340F2A780D7F800
:1004D00008801A63D8F8043023F003039C42C4EB6D
:1004E000030294BF002301230F2AD8BF43F0010366
:1004F000B3B130464FF0000800F030FA5EE69A18CB
:10050000D9689C6803F108085568304645F0010336
:10051000E1608C60536000F021FA4FE6F8010020A2
:1005200008EB040342F0010244F001043046C8F82D
:10053000044008F108085A60BB6000F00FFA3DE67D
:10054000410A04299CBF4FEA901E0EF1380E1DD9B6
:10055000142998BF01F15B0E18D954299CBF4FEAAA
:10056000103E0EF16E0E11D9B1F5AA7F9CBF4FEA75
:10057000D03E0EF1770E09D940F2545E714596BF18
:100580004FEA904E4FF07E0E0EF17C0E07EBCE0838
:10059000D8F80810414503D147E08968884505D05F
:1005A000D1F804E02EF0030E7045F6D3D1F80CE03C
:1005B000C3F80CE099607868CB60CEF808305DE64F
:1005C0001D1941F00107D56044F0010495603046E3
:1005D0005C6003F10808EA60AA606F60695000F08F
:1005E000BDF9EBE509F1010919F0030F2FD008F16E
:1005F00008085BE603F108025B699A4208BF0CF148
:10060000020C3FF410AEC8E580464318C26830467D
:1006100058F8081FCAE5B8453FF4EDAED7F8088092
:10062000D8F8043023F0030358E74FF00109D7F856
:1006300004804FEAAE008E4609FA00F048EA000056
:100640007860B5E7984601225A60002346E7514694
:100650001CF0030F0B460CF1FF3C2CD053F808198B
:100660009942F5D07B684FEA4E0E9E453FF68CAE20
:10067000BEF1000F3FF488AE1EEA030F20D0CC4637
:1006800010E64FEA015E4FEA1E5EBEF1000F7FF4F6
:10069000BAAEBB680BEB090141F00101596004E7F8
:1006A000304608F1080100F093FADBF80420FCE67C
:1006B00001210025D4E67B6823EA0E037B60D1E7A5
:1006C0004FEA4E0E09F10409D6E700BF10F0030F00
:1006D000034670B4C9B210D002B303788B421ED067
:1006E000013A013005E0CAB110F8014B013A8C42E1
:1006F00017D010F0030F0346F5D1032A13D86AB1BF
:10070000187888420DD0013A5C1C04E014F8015BB3
:10071000013A8D4203D02046002AF7D1104670BC22
:1007200070471846FBE741EA012646EA06461846A6
:1007300053F8044B86EA0404A4F1013525EA0404C5
:1007400014F0803F03D1043A1846032AEFD8034639
:10075000D5E700BF032A2DE9F00109D82AB100230B
:10076000CC5CC45401339342FAD1BDE8F001704728
:100770000B468218014603E02478013301F8014B4F
:1007800011F0030F1C46F7D113F003055DD06E4244
:10079000C5F1040CED009B594FEACC0C08E0043481
:1007A000A7593B4607FA0CF748EA070741F8047BCC
:1007B000571A23FA05F8032FF1DC03E014F8013B84
:1007C00001F8013B8A42F9D8CFE753F8404C41F891
:1007D000404C53F83C4C41F83C4C53F8384C41F8F1
:1007E000384C53F8344C41F8344C53F8304C41F801
:1007F000304C53F82C4C41F82C4C53F8284C41F811
:10080000284C53F8244C41F8244C53F8204C41F820
:10081000204C53F81C4C41F81C4C53F8184C41F830
:10082000184C53F8144C41F8144C53F8104C41F840
:10083000104C53F80C4C41F80C4C53F8084C41F850
:10084000084C53F8044C41F8044C561A1D460C460B
:10085000403340313F2EB8DC2B460FE053F8101CDC
:1008600044F8101C53F80C1C44F80C1C53F8081CDA
:1008700044F8081C53F8041C44F8041C161B1D46BD
:1008800010330F2E214604F11004E7DC2B4602E062
:10089000246841F8044B551A1C46032D03F1040348
:1008A000F6DC8FE7032AC9B270B408D82AB1034630
:1008B000121803F8011B9342FBD170BC70478218D9
:1008C000044601E004F8011B14F0030FFAD14FF0C5
:1008D000013303FB01F31FE044F8403C44F83C3C87
:1008E00044F8383C44F8343C44F8303C44F82C3C60
:1008F00044F8283C44F8243C44F8203C44F81C3C90
:1009000044F8183C44F8143C44F8103C44F80C3CBF
:1009100044F8083C44F8043C161B254640343F2E5E
:10092000DADC2C4607E044F8103C44F80C3C44F870
:10093000083C44F8043C161B254610340F2EF2DC0C
:1009400001E045F8043B541B032CFADC01E005F8F8
:10095000011B9542FBD3B0E7704700BF704700BF53
:1009600070B540F2FC04C2F2000406462568AB6B89
:100970001BB100221E615A6170BD1820FFF7D8FB21
:1009800023684AF6CD3141F23422A86343F20E3097
:100990009B6B18804EF26D6059804DF6EC619A8029
:1009A0000522D8800B20198100215A8100229881CC
:1009B0000120C3E904011E615A6170BD70B540F2A7
:1009C000FC04C2F200042568AE6BDEB130694FF260
:1009D0002D44756947F62D71C5F65104C4F695414D
:1009E0000122002304FB00F401FB0544A0FB0101EC
:1009F0001218214443EB0103C6E9042323F000410C
:100A0000084670BD1820FFF793FB246812A3D3E9B2
:100A100000234FF22D41C5F65101A86343F20E3079
:100A2000A66B41F234254AF6CD3430804EF26D602B
:100A300074804DF6EC64B5800525F0800B20348180
:100A4000012475810025B0810846C6E90445C6E940
:100A5000042370BDAFF300802E7F954C2DF45158C8
:100A60000246404240EA020221F0004141EAD272CD
:100A7000C2F1FE4202F57002504240EA0202D01773
:100A80000130704702464042104321F0004141EAE4
:100A9000D070C0F1FE4000F57000C00F704700BF7D
:100AA00038B541F6F024C2F200040546084600239A
:100AB00023600EF083FAB0F1FF3F00D038BD236809
:100AC000002BFBD02B6038BD20F0030110F0030099
:100AD000C0F1000051F8043B00F1040C4FEACC0CCB
:100AE0006FF000021CBF22FA0CF213434FF0010C0E
:100AF0004CEA0C2C4CEA0C4CA3EB0C0222EA03024D
:100B000012EACC1204BF51F8043B0430F4D013F0C5
:100B1000FF0F1FBF013013F47F4F013013F47F0F1D
:100B200018BF0130704700BFF8B540F2F014C2F2B0
:100B300000040F460546FFF70FFFA3685E6826F026
:100B4000030606F57E630F33DF1B3F0B013F3F03B8
:100B5000B7F5805F07DB00212846FFF7A1FFA368F8
:100B60009B19984204D02846FFF7F8FE0020F8BDF4
:100B700079422846FFF794FFB0F1FF3F10D040F6CE
:100B80000C43A168C2F20003F61B284646F001069A
:100B90001A684E60D71B1F60FFF7E0FE0120F8BD0A
:100BA00000212846FFF77CFFA368C21A0F2ADADD6E
:100BB00040F2F85440F60C41C2F20004C2F20001C7
:100BC00042F001025A602368C01A0860CBE700BFF8
:100BD0002DE9F0410D460446002958D0FFF7BCFE30
:100BE000A5F1080240F2F0105668C2F2000026F0AB
:100BF0000103D0F808C0D1188C454F6827F00307CF
:100C000065D016F001064F6031D00026CD196D6811
:100C100015F0010F06D1DB19002E4BD08D68C96885
:100C2000E9608D6043F00101D3505160D6B9B3F54E
:100C3000007F2ED3590A04296BD89E093836F50057
:100C40004519A968A94203D169E089688D4204D099
:100C5000486820F003008342F7D3CB68D3609160EB
:100C6000CA609A602046BDE8F041FFF777BE55F8AC
:100C7000085C00F1080C521B5B199568654546D06D
:100C8000D2F80CC0C5F80CC0CCF80850BEE7BDE8DF
:100C9000F081DB080125466800EBC3019B1015FAC3
:100CA00003F3D1608D6846EA030343609560EA6010
:100CB0008A60D7E78D682B4FBD42B0D1EA6043F020
:100CC0000101AA60D56095605160D350CAE716F063
:100CD000010F3B4407D155F8081C521A5B18956860
:100CE000D168E9608D6040F2FC5143F00105C2F229
:100CF0000001556082600A689342B3D340F608430E
:100D00002046C2F200031968FFF70EFFAAE701268A
:100D10007CE714290CD801F15B06F50090E701256A
:100D20004768B6100B46B54047EA0505456095E7AC
:100D3000542903D81E0B6E36F50081E7B1F5AA7F62
:100D400003D8DE0B7736F5007AE740F25455A94216
:100D500003D89E0C7C36F50072E74FF47C757E2636
:100D60006EE700BFF80100204A1E08BF7047C0F0C0
:100D70002481884240F21681114200F01781B0FAB6
:100D800080F3B1FA81F2A2EB0303C3F11F0304A2C3
:100D900002EB03134FF000029F4600BFAFF3008049
:100DA000B0EBC17F00BF42EB020228BFA0EBC170D5
:100DB000B0EB817F00BF42EB020228BFA0EB817045
:100DC000B0EB417F00BF42EB020228BFA0EB4170B5
:100DD000B0EB017F00BF42EB020228BFA0EB017025
:100DE000B0EBC16F00BF42EB020228BFA0EBC160B5
:100DF000B0EB816F00BF42EB020228BFA0EB816025
:100E0000B0EB416F00BF42EB020228BFA0EB416094
:100E1000B0EB016F00BF42EB020228BFA0EB016004
:100E2000B0EBC15F00BF42EB020228BFA0EBC15094
:100E3000B0EB815F00BF42EB020228BFA0EB815004
:100E4000B0EB415F00BF42EB020228BFA0EB415074
:100E5000B0EB015F00BF42EB020228BFA0EB0150E4
:100E6000B0EBC14F00BF42EB020228BFA0EBC14074
:100E7000B0EB814F00BF42EB020228BFA0EB8140E4
:100E8000B0EB414F00BF42EB020228BFA0EB414054
:100E9000B0EB014F00BF42EB020228BFA0EB0140C4
:100EA000B0EBC13F00BF42EB020228BFA0EBC13054
:100EB000B0EB813F00BF42EB020228BFA0EB8130C4
:100EC000B0EB413F00BF42EB020228BFA0EB413034
:100ED000B0EB013F00BF42EB020228BFA0EB0130A4
:100EE000B0EBC12F00BF42EB020228BFA0EBC12034
:100EF000B0EB812F00BF42EB020228BFA0EB8120A4
:100F0000B0EB412F00BF42EB020228BFA0EB412013
:100F1000B0EB012F00BF42EB020228BFA0EB012083
:100F2000B0EBC11F00BF42EB020228BFA0EBC11013
:100F3000B0EB811F00BF42EB020228BFA0EB811083
:100F4000B0EB411F00BF42EB020228BFA0EB4110F3
:100F5000B0EB011F00BF42EB020228BFA0EB011063
:100F6000B0EBC10F00BF42EB020228BFA0EBC100F3
:100F7000B0EB810F00BF42EB020228BFA0EB810063
:100F8000B0EB410F00BF42EB020228BFA0EB4100D3
:100F9000B0EB010F00BF42EB020228BFA0EB010043
:100FA000104670470CBF012000207047B1FA81F253
:100FB000C2F11F0220FA02F0704708B14FF0FF3073
:100FC00000F066B90029F8D02DE90340FFF7CCFE08
:100FD000BDE8064002FB00F3A1EB0301704700BF30
:100FE000002900F03E8180EA010C48BF49424A1EB8
:100FF00000F01F81030048BF43428B4240F21E8134
:10100000114200F02381B3FA83F2B1FA81F0A0EB30
:101010000202C2F11F0204A000EB02124FF0000016
:10102000974600BFAFF30080B3EBC17F00BF40EB3A
:10103000000028BFA3EBC173B3EB817F00BF40EB7F
:10104000000028BFA3EB8173B3EB417F00BF40EBEF
:10105000000028BFA3EB4173B3EB017F00BF40EB5F
:10106000000028BFA3EB0173B3EBC16F00BF40EBDF
:10107000000028BFA3EBC163B3EB816F00BF40EB5F
:10108000000028BFA3EB8163B3EB416F00BF40EBCF
:10109000000028BFA3EB4163B3EB016F00BF40EB3F
:1010A000000028BFA3EB0163B3EBC15F00BF40EBBF
:1010B000000028BFA3EBC153B3EB815F00BF40EB3F
:1010C000000028BFA3EB8153B3EB415F00BF40EBAF
:1010D000000028BFA3EB4153B3EB015F00BF40EB1F
:1010E000000028BFA3EB0153B3EBC14F00BF40EB9F
:1010F000000028BFA3EBC143B3EB814F00BF40EB1F
:10110000000028BFA3EB8143B3EB414F00BF40EB8E
:10111000000028BFA3EB4143B3EB014F00BF40EBFE
:10112000000028BFA3EB0143B3EBC13F00BF40EB7E
:10113000000028BFA3EBC133B3EB813F00BF40EBFE
:10114000000028BFA3EB8133B3EB413F00BF40EB6E
:10115000000028BFA3EB4133B3EB013F00BF40EBDE
:10116000000028BFA3EB0133B3EBC12F00BF40EB5E
:10117000000028BFA3EBC123B3EB812F00BF40EBDE
:10118000000028BFA3EB8123B3EB412F00BF40EB4E
:10119000000028BFA3EB4123B3EB012F00BF40EBBE
:1011A000000028BFA3EB0123B3EBC11F00BF40EB3E
:1011B000000028BFA3EBC113B3EB811F00BF40EBBE
:1011C000000028BFA3EB8113B3EB411F00BF40EB2E
:1011D000000028BFA3EB4113B3EB011F00BF40EB9E
:1011E000000028BFA3EB0113B3EBC10F00BF40EB1E
:1011F000000028BFA3EBC103B3EB810F00BF40EB9E
:10120000000028BFA3EB8103B3EB410F00BF40EB0D
:10121000000028BFA3EB4103B3EB010F00BF40EB7D
:10122000000028BFA3EB0103BCF1000F48BF404200
:1012300070479CEA000F48BF4042704738BF00200B
:1012400004BF4FEAEC7040F001007047B1FA81F240
:10125000C2F11F02BCF1000F23FA02F048BF404266
:1012600070470028C8BF6FF00040B8BF4FF0004083
:1012700000F00EB80029F4D02DE90340FFF7B3FECB
:10128000BDE8064002FB00F3A1EB0301704700BF7D
:10129000704700BF81F0004102E000BF83F00043CF
:1012A00030B54FEA41044FEA430594EA050F08BF01
:1012B00090EA020F1FBF54EA000C55EA020C7FEAC5
:1012C000645C7FEA655C00F0E2804FEA5454D4EB42
:1012D0005555B8BF6D420CDD2C4480EA020281EA0C
:1012E000030382EA000083EA010180EA020281EA44
:1012F0000303362D88BF30BD11F0004F4FEA013196
:101300004FF4801C4CEA113102D0404261EB4101A4
:1013100013F0004F4FEA03334CEA133302D052422A
:1013200063EB430394EA050F00F0A780A4F10104E6
:10133000D5F1200E0DDB02FA0EFC22FA05F2801820
:1013400041F1000103FA0EF2801843FA05F3594106
:101350000EE0A5F120050EF1200E012A03FA0EFC85
:1013600028BF4CF0020C43FA05F3C01851EBE371AF
:1013700001F0004507D54FF0000EDCF1000C7EEBCC
:1013800000006EEB0101B1F5801F1BD3B1F5001F0A
:101390000CD349085FEA30004FEA3C0C04F1010429
:1013A0004FEA445212F5800F80F09A80BCF1004F52
:1013B00008BF5FEA500C50F1000041EB045141EAD4
:1013C000050130BD5FEA4C0C404141EB010111F4D5
:1013D000801FA4F10104E9D191F0000F04BF014680
:1013E0000020B1FA81F308BF2033A3F10B03B3F15E
:1013F00020020CDA0C3208DD02F1140CC2F10C02EE
:1014000001FA0CF021FA02F10CE002F11402D8BF4B
:10141000C2F1200C01FA02F120FA0CFCDCBF41EA17
:101420000C019040E41AA2BF01EB0451294330BDE6
:101430006FEA04041F3C1CDA0C340EDC04F11404C3
:10144000C4F1200220FA04F001FA02F340EA03009A
:1014500021FA04F345EA030130BDC4F10C04C4F1E0
:10146000200220FA02F001FA04F340EA03002946C0
:1014700030BD21FA04F0294630BD94F0000F83F40A
:10148000801306BF81F480110134013D4EE77FEAED
:10149000645C18BF7FEA655C29D094EA050F08BF39
:1014A00090EA020F05D054EA000C04BF194610461A
:1014B00030BD91EA030F1EBF0021002030BD5FEA5E
:1014C000545C05D14000494128BF41F0004130BD86
:1014D00014F580043CBF01F5801130BD01F00045DA
:1014E00045F0FE4141F470014FF0000030BD7FEA4D
:1014F000645C1ABF194610467FEA655C1CBF0B4648
:10150000024650EA013406BF52EA033591EA030F5E
:1015100041F4002130BD00BF90F0000F04BF002156
:10152000704730B54FF4806404F132044FF0000589
:101530004FF0000150E700BF90F0000F04BF002102
:10154000704730B54FF4806404F1320410F0004568
:1015500048BF40424FF000013EE700BF42004FEA63
:10156000E2014FEA31014FEA02701FBF12F07F43E0
:1015700093F07F4F81F06051704792F0000F14BFDD
:1015800093F07F4F704730B54FF4607401F0004521
:1015900021F0004120E700BF50EA010208BF704778
:1015A00030B54FF000050AE050EA010208BF70476D
:1015B00030B511F0004502D5404261EB41014FF4D6
:1015C000806404F132045FEA915C3FF4DCAE4FF0DA
:1015D00003025FEADC0C18BF03325FEADC0C18BFC1
:1015E000033202EBDC02C2F1200300FA03FC20FA12
:1015F00002F001FA03FE40EA0E0021FA02F114445F
:10160000C1E600BF70B54FF0FF0C4CF4E06C1CEA73
:1016100011541DBF1CEA135594EA0C0F95EA0C0FE8
:1016200000F0DEF82C4481EA030621EA4C5123EA5B
:101630004C5350EA013518BF52EA033541F480118A
:1016400043F4801338D0A0FB02CE4FF00005E1FB3D
:1016500002E506F00042E0FB03E54FF00006E1FB87
:1016600003569CF0000F18BF4EF0010EA4F1FF04CA
:10167000B6F5007F64F5407404D25FEA4E0E6D410A
:1016800046EB060642EAC62141EA55514FEAC5201B
:1016900040EA5E504FEACE2EB4F1FD0C88BFBCF597
:1016A000E06F1ED8BEF1004F08BF5FEA500E50F148
:1016B000000041EB045170BD06F0004646EA01010E
:1016C00040EA020081EA0301B4EB5C04C2BFD4EB40
:1016D0000C0541EA045170BD41F480114FF0000E39
:1016E000013C00F3AB8014F1360FDEBF002001F0A7
:1016F000004170BDC4F10004203C35DA0C341BDC21
:1017000004F11404C4F1200500FA05F320FA04F0F2
:1017100001FA05F240EA020001F0004221F0004126
:1017200010EBD37021FA04F642EB06015EEA430E99
:1017300008BF20EAD37070BDC4F10C04C4F12005C9
:1017400000FA04F320FA05F001FA04F240EA02007C
:1017500001F0004110EBD37041F100015EEA430E4D
:1017600008BF20EAD37070BDC4F1200500FA05F26D
:101770004EEA020E20FA04F301FA05F243EA0203EC
:1017800021FA04F001F0004121FA04F220EA0200FB
:1017900000EBD3705EEA430E08BF20EAD37070BD41
:1017A00094F0000F0FD101F00046400041EB010121
:1017B00011F4801F08BF013CF7D041EA060195F003
:1017C000000F18BF704703F00046520043EB0303BD
:1017D00013F4801F08BF013DF7D043EA06037047AA
:1017E00094EA0C0F0CEA135518BF95EA0C0F0CD0B5
:1017F00050EA410618BF52EA4306D1D181EA0301FB
:1018000001F000414FF0000070BD50EA410606BFF4
:101810001046194652EA430619D094EA0C0F02D139
:1018200050EA013613D195EA0C0F05D152EA03367E
:101830001CBF104619460AD181EA030101F000419C
:1018400041F0FE4141F470014FF0000070BD41F0E5
:10185000FE4141F4780170BD70B54FF0FF0C4CF4BF
:10186000E06C1CEA11541DBF1CEA135594EA0C0FDE
:1018700095EA0C0F00F0A7F8A4EB050481EA030E2B
:1018800052EA03354FEA013100F088804FEA033312
:101890004FF0805545EA131343EA12634FEA0222E0
:1018A00045EA111545EA10654FEA00260EF00041A1
:1018B0009D4208BF964244F1FD0404F5407402D2F3
:1018C0005B084FEA3202B61A65EB03055B084FEA84
:1018D00032024FF480104FF4002CB6EB020E75EB81
:1018E000030E22BFB61A754640EA0C005B084FEAA9
:1018F0003202B6EB020E75EB030E22BFB61A754626
:1019000040EA5C005B084FEA3202B6EB020E75EB70
:10191000030E22BFB61A754640EA9C005B084FEAE8
:101920003202B6EB020E75EB030E22BFB61A7546F5
:1019300040EADC0055EA060E18D04FEA051545EAE4
:1019400016754FEA06164FEAC30343EA52734FEA8D
:10195000C2025FEA1C1CC0D111F4801F0BD141EA06
:1019600000014FF000004FF0004CB6E711F4801F6B
:1019700004BF01430020B4F1FD0C88BFBCF5E06F4B
:101980003FF6AFAEB5EB030C04BFB6EB020C5FEA5B
:10199000500C50F1000041EB045170BD0EF0004EB0
:1019A0004EEA113114EB5C04C2BFD4EB0C0541EAE2
:1019B000045170BD41F480114FF0000E013C90E6DF
:1019C00045EA060E8DE60CEA135594EA0C0F08BFA3
:1019D00095EA0C0F3FF43BAF94EA0C0F0AD150EAA2
:1019E00001347FF434AF95EA0C0F7FF425AF104635
:1019F00019462CE795EA0C0F06D152EA03353FF45D
:101A0000FDAE1046194622E750EA410618BF52EAD9
:101A100043067FF4C5AE50EA41047FF40DAF52EAAD
:101A200043057FF4EBAE12E74FF0FF3C06E000BF4A
:101A30004FF0010C02E000BF4FF0010C4DF804CD57
:101A40004FEA410C7FEA6C5C4FEA430C18BF7FEA17
:101A50006C5C1BD001B050EA410C0CBF52EA430C45
:101A600091EA030F02BF90EA020F0020704710F1C5
:101A7000000F91EA030F58BF994208BF90422CBF54
:101A8000D8176FEAE37040F0010070474FEA410C4D
:101A90007FEA6C5C02D150EA013C07D14FEA430C6B
:101AA0007FEA6C5CD6D152EA033CD3D05DF8040BDC
:101AB000704700BF8446104662468C46194663460E
:101AC00000E000BF01B5FFF7B7FF002848BF10F1E5
:101AD000000F01BD4DF808EDFFF7F4FF0CBF01202A
:101AE00000205DF808FB00BF4DF808EDFFF7EAFFA6
:101AF00034BF012000205DF808FB00BF4DF808ED61
:101B0000FFF7E0FF94BF012000205DF808FB00BF55
:101B10004DF808EDFFF7CEFF94BF012000205DF8DF
:101B200008FB00BF4DF808EDFFF7C4FF34BF0120EC
:101B300000205DF808FB00BF4FEA410212F50012D9
:101B400015D211D56FF47873B3EB625212D94FEA04
:101B5000C12343F0004343EA505311F0004F23FAEE
:101B600002F018BF404270474FF00000704750EA43
:101B7000013005D111F0004008BF6FF00040704700
:101B80004FF00000704700BF80F0004002E000BF4F
:101B900081F0004142001FBF5FEA410392EA030F58
:101BA0007FEA226C7FEA236C6AD04FEA1262D2EBA2
:101BB0001363C1BFD218414048404140B8BF5B42A7
:101BC000192B88BF704710F0004F40F4000020F040
:101BD0007F4018BF404211F0004F41F4000121F056
:101BE0007F4118BF494292EA030F3FD0A2F10102A0
:101BF00041FA03FC10EB0C00C3F1200301FA03F1DE
:101C000000F0004302D5494260EB4000B0F5000F00
:101C100013D3B0F1807F06D340084FEA310102F1BF
:101C20000102FE2A51D2B1F1004F40EBC25008BF71
:101C300020F0010040EA03007047490040EB00003B
:101C400010F4000FA2F10102EDD1B0FA80FCACF16A
:101C5000080CB2EB0C0200FA0CF0AABF00EBC25069
:101C600052421843BCBFD0401843704792F0000F57
:101C700081F4000106BF80F400000132013BB5E7AA
:101C80004FEA41037FEA226C18BF7FEA236C21D020
:101C900092EA030F04D092F0000F08BF0846704785
:101CA00090EA010F1CBF0020704712F07F4F04D153
:101CB000400028BF40F00040704712F100723CBF66
:101CC00000F50000704700F0004343F0FE4040F490
:101CD000000070477FEA226216BF08467FEA23634E
:101CE0000146420206BF5FEA412390EA010F40F439
:101CF000800070474FF0000304E000BF10F0004385
:101D000048BF40425FEA000C08BF704743F096436B
:101D100001464FF000001CE050EA010208BF704786
:101D20004FF000030AE000BF50EA010208BF70470D
:101D300011F0004302D5404261EB41015FEA010C22
:101D400002BF84460146002043F0B64308BFA3F11A
:101D50008053A3F50003BCFA8CF2083AA3EBC253FC
:101D600010DB01FA02FC634400FA02FCC2F120021B
:101D7000BCF1004F20FA02F243EB020008BF20F052
:101D80000100704702F1200201FA02FCC2F12002B8
:101D900050EA4C0021FA02F243EB020008BF20EAAD
:101DA000DC7070474FF0FF0C1CEAD0521EBF1CEADB
:101DB000D15392EA0C0F93EA0C0F6FD01A4480EAC9
:101DC000010C400218BF5FEA41211ED04FF00063B2
:101DD00043EA501043EA5111A0FB01310CF00040DE
:101DE000B1F5000F3EBF490041EAD3715B0040EA04
:101DF000010062F17F02FD2A1DD8B3F1004F40EBD4
:101E0000C25008BF20F00100704790F0000F0CF0A6
:101E1000004C08BF49024CEA502040EA51207F3A6A
:101E2000C2BFD2F1FF0340EAC250704740F4000045
:101E30004FF00003013A5DDC12F1190FDCBF00F036
:101E400000407047C2F10002410021FA02F1C2F1E4
:101E5000200200FA02FC5FEA310040F1000053EA80
:101E60004C0308BF20EADC70704792F0000F00F0CE
:101E7000004C02BF400010F4000F013AF9D040EAD4
:101E80000C0093F0000F01F0004C02BF490011F468
:101E9000000F013BF9D041EA0C018FE70CEAD15366
:101EA00092EA0C0F18BF93EA0C0F0AD030F0004CE6
:101EB00018BF31F0004CD8D180EA010000F000409A
:101EC000704790F0000F17BF90F0004F084691F058
:101ED000000F91F0004F14D092EA0C0F01D1420292
:101EE0000FD193EA0C0F03D14B0218BF084608D15B
:101EF00080EA010000F0004040F0FE4040F40000A5
:101F0000704740F0FE4040F4400070474FF0FF0C37
:101F10001CEAD0521EBF1CEAD15392EA0C0F93EA7E
:101F20000C0F69D0A2EB030280EA010C49024FEAD0
:101F3000402037D04FF0805343EA111143EA101389
:101F40000CF000408B4238BF5B0042F17D024FF441
:101F5000000C8B4224BF5B1A40EA0C00B3EB510F1C
:101F600024BFA3EB510340EA5C00B3EB910F24BF05
:101F7000A3EB910340EA9C00B3EBD10F24BFA3EB8A
:101F8000D10340EADC001B0118BF5FEA1C1CE0D152
:101F9000FD2A3FF650AF8B4240EBC25008BF20F005
:101FA000010070470CF0004C4CEA50207F32C2BF59
:101FB000D2F1FF0340EAC250704740F400004FF0F6
:101FC0000003013A37E792F0000F00F0004C02BF27
:101FD000400010F4000F013AF9D040EA0C0093F0F1
:101FE000000F01F0004C02BF490011F4000F013B4B
:101FF000F9D041EA0C0195E70CEAD15392EA0C0FB3
:1020000008D142027FF47DAF93EA0C0F7FF470AFEA
:10201000084676E793EA0C0F04D14B023FF44CAF2D
:1020200008466EE730F0004C18BF31F0004CCAD1C2
:1020300030F000427FF45CAF31F000437FF43CAFFE
:102040005FE700BF42000ED2B2F1FE4F0BD34FF05C
:102050009E03B3EB126209D44FEA002343F000431E
:1020600023FA02F070474FF00000704712F1610F41
:1020700001D1420202D14FF0FF3070474FF0000013
:10208000704700BF73B96AB9002908BF0028BCBFF8
:1020900000204FF00041C4BF6FF000414FF0FF300F
:1020A000FFF7F6B882B0EC462DE9005000F006F8D4
:1020B000DDF804E002B00CBC704700BF2DE97043AE
:1020C0001646804689461D4600F028F800FB05F3B9
:1020D000A0FB064506FB0136069B7519B8EB040408
:1020E00069EB0505C3E90045BDE870832DE9704340
:1020F0001646804689461D4600F0C2F900FB05F3EE
:10210000A0FB064506FB0136069B7519B8EB0404D7
:1021100069EB0505C3E90045BDE8708300292DE999
:10212000F04F1C4685B0C0F2CB800026002CC0F2D8
:10213000C2808C4617461446054688469A46002BB0
:1021400049D18A426DD9B2FA82F353B1C3F120006A
:1021500001FA03F835FA00F217FA03F442EA080824
:102160009D404FEA144A404651461FFA84FBFEF751
:10217000FBFD51462F0C81464046FEF723FF0BFB2B
:1021800009F347EA0148434509D918EB040809F166
:10219000FF3904D2434584BF09F1FF39A044C3EBA2
:1021A000080851464046ADB2FEF7DEFD51460746EF
:1021B0004046FEF707FF0BFB07FB45EA0145AB4531
:1021C00005D9013F2D1902D2AB4588BF013F47EA2F
:1021D0000949002403E08B420CD90024A1464A4659
:1021E000234616B1524263EB43031046194605B02D
:1021F000BDE8F08FB3FA83F4002C40F0B4808B423A
:102200004FF001092CBF4FF0000C4FF0010C82423F
:102210008CBF67464CF00107002FE0D13C46B94621
:10222000DDE722B901201146FEF79EFD0446B4FA0F
:1022300084F3002B4AD1C4EB0808270C1FFA84FA58
:102240000121029139464046FEF78EFD39464FEA9C
:10225000154B81464046FEF7B5FE0AFB09F34BEAF3
:10226000014B5B4509D91BEB040B09F1FF3904D283
:102270005B4584BF09F1FF39A344C3EB0B0B39461F
:102280005846ADB2FEF770FD394680465846FEF717
:1022900099FE0AFB08FA45EA0145AA4507D92D1916
:1022A00008F1FF3803D2AA4588BF08F1FF3848EA91
:1022B0000949029C93E7F643524263EB430338E734
:1022C000404261EB41014FF0FF362FE79C40C3F1E4
:1022D000200028FA00FA08FA03FB270C35FA00F26E
:1022E0003946504642EA0B029D400292FEF73CFD01
:1022F000394683465046FEF765FE029B1FFA84FA74
:102300004FEA13490AFB0BF349EA0148434505D953
:1023100018EB04080BF1FF3BC0F0AB80C3EB0808DF
:1023200039464046FEF720FD394681464046FEF7D5
:1023300049FE029A0AFB09F31FFA82FC4CEA0148A3
:10234000434509D918EB040809F1FF3904D2434584
:1023500084BF09F1FF39A04449EA0B4EC3EB0808DA
:10236000CDF808E06EE7C4F1200003FA04FA32FA6F
:1023700000F321FA00F843EA0A0A35FA00F201FAFA
:1023800004F940464FEA1A4B42EA090103915946C3
:1023900017FA04F30293FEF7E7FC594681464046DC
:1023A000FEF710FE1FFA8AF3039803FB09F2070CED
:1023B00047EA0148424504D918EB0A0809F1FF39F8
:1023C00051D3C2EB0808594640460193FEF7CCFCB6
:1023D000594607464046FEF7F5FD0198039A00FB73
:1023E00007F31FFA82FC4CEA014C634507D9013F11
:1023F0001CEB0A0C03D2634501D9013FD44447EAE0
:102400000949029FC3EB0C031FFA89FE4FEA1940EA
:10241000B9B23F0C01FB0EF801FB00F107FB0E12F5
:1024200007FB00FC02EB1842914288BF0CF5803C90
:102430000CEB124E734512D34FEA02421FFA88F892
:1024400014BF0023012302EB080C15FA04F46445C1
:102450002CBF002403F00104002C3FF4C0AE09F1AE
:10246000FF390024BBE6424584BF09F1FF39D0445F
:10247000A7E7434584BF0BF1FF3BA0444EE700BFF5
:102480002DE9F04F054683B00C46174680460E46B0
:10249000002B4FD18A4263D9B2FA82F353B1C3F110
:1024A000200011FA03F635FA00F29F4042EA0606D0
:1024B00005FA03F83C0C304621461FFA87FAFEF76E
:1024C00053FC21464FEA184581463046FEF77AFD17
:1024D0000AFB09F345EA0146B34208D9F61909F1A6
:1024E000FF3904D2B34284BF09F1FF39F619F61A55
:1024F000214630461FFA88F8FEF736FC214605468D
:102500003046FEF75FFD0AFB05FA48EA0148C2457E
:1025100006D9013D18EB070802D2C24588BF013D2C
:1025200045EA094A00263146D046B146504603B036
:10253000BDE8F08F8B425BD8B3FA83F6002E5AD1F8
:102540008B424FF0010A2CBF0024012482428CBF31
:10255000254644F00105002DE5D12E46AA46E2E7C6
:1025600022B901201146FEF7FFFB0746B7FA87F3B1
:10257000002B40F0BB80E41B4FEA174BBDB2012695
:1025800059462046FEF7F0FB594682462046FEF7A4
:1025900019FD4FEA184C05FB0AF34CEA0144A3422B
:1025A00008D9E4190AF1FF3A04D2A34284BF0AF120
:1025B000FF3AE419E41A59462046FEF7D5FB59467E
:1025C00081462046FEF7FEFC1FFA88F305FB09F55D
:1025D00043EA0148454508D918EB070809F1FF39D6
:1025E00003D2454588BF09F1FF3949EA0A4A9AE70B
:1025F0000026B24697E7C6F1200013FA06F132FA38
:1026000000F735FA00F30F4324FA00FBB4405846B4
:102610004FEA174843EA04010191414612FA06F4D1
:102620000094FEF7A1FB4146BCB282465846FEF735
:10263000C9FC019A04FB0AF34FEA124B4BEA014B27
:102640005B4505D91BEB070B0AF1FF3AC0F09680FA
:10265000C3EB0B0B41465846FEF786FB41468146CD
:102660005846FEF7AFFC019A04FB09F41FFA82F802
:1026700048EA01439C4203D9DB1909F1FF3977D3BA
:10268000009F49EA0A4A1C1B1FFA8AF11FFA87F8C1
:102690003A0C4FEA1A4708FB01FC08FB07F302FB60
:1026A000013002FB07F900EB1C418B4288BF09F5A2
:1026B000803909EB114E744514D34FEA01491FFAD2
:1026C0008CF314BF4FF0000E4FF0010E09EB030C1A
:1026D00015FA06F666452CBF00260EF00106002E00
:1026E0003FF421AF0AF1FF3A00261CE79F40C3F1F7
:1026F000200924FA09F614FA03F24FEA174B25FAD7
:1027000009FA5946304605FA03F84AEA020AFEF782
:102710002BFB5946BDB24FEA1A4481463046FEF7BC
:1027200051FC05FB09F344EA0144A34203D9E4192F
:1027300009F1FF3928D3E41A59462046FEF714FB65
:10274000594606462046FEF73DFC1FFA8AF005FB77
:1027500006F340EA0144A34206D9013EE41903D23C
:10276000A34201D9013EE419E41A46EA094607E703
:102770009C4284BF09F1FF39DB1981E75B4584BFC7
:102780000AF1FF3ABB4463E7A34284BF09F1FF3972
:10279000E419D0E7684620F007018D462DE9F14F96
:1027A000ADF5287D12AF4FF61C33C0F60003C7F815
:1027B000503240F20003C2F20003C7F84C3211E07D
:1027C000D7F850321A68D7F84C321A60D7F84C3222
:1027D00003F10403C7F84C32D7F8503203F1040375
:1027E000C7F85032D7F84C2240F20063C2F200031F
:1027F0009A42E5D340F20063C2F20003C7F84C32BC
:102800000AE0D7F84C324FF000021A60D7F84C3289
:1028100003F10403C7F84C32D7F84C2241F6F423F5
:10282000C2F200039A42ECD340F20063C2F200030A
:102830004FF000021A7040F20463C2F200034FF03E
:1028400000021A6040F20863C2F200034FF0000277
:102850001A7040F20C63C2F200034FF000021A60DB
:1028600040F21063C2F200034FF000021A6040F21F
:102870001463C2F200034FF000021A7040F21563B5
:10288000C2F200034FF000021A7040F21863C2F265
:1028900000034FF0FF021A6040F21C63C2F2000313
:1028A0004FF0FF021A7040F21D63C2F200034FF0B6
:1028B00000021A704FF00003C7F8543219E040F6D6
:1028C0009043C2F20003D7F854229B184FF07F02C6
:1028D0001A7040F69C53C2F20003D7F854229B189A
:1028E0004FF07F021A70D7F8543203F10103C7F892
:1028F0005432D7F854320B2BE1DD40F69043C2F24C
:1029000000034FF00002DA7140F69043C2F2000378
:102910004FF000021A7240F69C53C2F200034FF0CF
:102920000002DA7140F69C53C2F200034FF000023D
:102930001A7203F031FC00F069FD01F0BDFF40F2B6
:102940000063C2F200034FF001021A7001F012F8A6
:102950000346002B00F09E824FF0C80001F0E0F922
:1029600006F0F2FF4FF0200000F0DEFE0346002BE1
:102970006BD040F20863C2F200031B78002B64D1D5
:1029800040F69043C2F200031B784FF00100194655
:1029900004F06CFA40F69043C2F200035B784FF00B
:1029A0000200194604F062FA40F69043C2F20003B6
:1029B0009B784FF00300194604F058FA40F6904314
:1029C000C2F20003DB784FF00400194604F04EFA1F
:1029D00040F69043C2F200031B794FF00500194600
:1029E00004F044FA40F69C53C2F200031B784FF007
:1029F0000600194604F03AFA40F69C53C2F200036E
:102A00005B784FF00700194604F030FA40F69C530B
:102A1000C2F200039B784FF00800194604F026FA32
:102A200040F69C53C2F20003DB784FF009001946D0
:102A300004F01CFA40F69C53C2F200031B794FF0DD
:102A40000A00194604F012FA9AE74FF00A0001F062
:102A500067F940F21D63C2F200031B78002B0CD013
:102A60004FF47A7001F05CF940F21D63C2F200038A
:102A70004FF000021A7006F067FF4FF0320001F0CD
:102A80004FF94FF00003C7F8483207F13C024FF20C
:102A90008C03C0F600031B88138002F102024FF47E
:102AA000FF7310464FF000011A46FDF7FBFE4FF092
:102AB0000003C7F8483236E0D7F84832DBB203F1FA
:102AC0000103DBB2184603F0D1FB0346002B13D100
:102AD000D7F84832DBB203F10103DBB2184603F04A
:102AE000BDFD034603F10303DAB207F50F71D7F812
:102AF0004832CB181A7010E0D7F84832DBB203F135
:102B00000103DBB2184603F0FBFC03461A4607F547
:102B10000F71D7F84832CB181A70D7F8483203F142
:102B20000103C7F84832D7F848320B2BC4DD97F8B9
:102B30003C321E4697F83D321D4697F83E32184605
:102B400097F83F321C4697F840327B6397F8413242
:102B50003B6397F84232FB6297F843329B4697F803
:102B600044329A4697F84532994697F84632984645
:102B700097F847329C4640F22C73C2F200031B6860
:102B80001B799E4640F22C73C2F200031B685B79EE
:102B9000194640F20863C2F200031B781A4607F197
:102BA0003C0300900194786B0290386B0390F86AB4
:102BB0000490CDF814B0CDF818A0CDF81C90CDF845
:102BC0002080CDF824C0CDF828E00B910C92184657
:102BD0004EF6EC71C0F6000132462B460AF0ACFD11
:102BE0004FF00003C7F8483207F13C02D7F84832EB
:102BF000D3181B78002B49D14FF00D0005F036FC9F
:102C00004FF0320001F08CF84FF0010003F0AAFC05
:102C100005464FF0020003F0A5FC04464FF0030008
:102C200003F0A0FC83464FF0040003F09BFC8246B7
:102C30004FF0050003F096FC81464FF0060003F0CC
:102C400091FC80464FF0070003F08CFC06464FF0E5
:102C5000080003F087FC024607F13C03CDF800B002
:102C6000CDF804A0CDF80890CDF80C80049605921C
:102C700018464FF22001C0F600012A4623460AF00A
:102C80005BFD4FF00003C7F8483210E007F13C024B
:102C9000D7F84832D3181B785BB2D7F8482202F134
:102CA0000102C7F84822184605F0E0FB9CE707F14F
:102CB0003C02D7F84832D3181B78002B40F0BB8079
:102CC0004FF00D0005F0D2FB4FF0320001F028F874
:102CD00041F2DC13C2F200031B68BB6241F2DC1359
:102CE000C2F200039B687B6241F2DC13C2F2000374
:102CF0001B699E4641F2DC13C2F200039B699C46AD
:102D000041F2DC13C2F200031B6A984641F2DC1365
:102D1000C2F200039B6A9A4641F2DC13C2F200033E
:102D20001B6B9B4641F2DC13C2F200039B6B3B62C0
:102D300041F2DC13C2F200031B6CFB6141F2DC13B5
:102D4000C2F200039B6CBB6141F2DC13C2F20003D0
:102D50009B889BB27B6141F2DC13C2F200039B892A
:102D60009BB23B6141F2DC13C2F200039B8A9BB22F
:102D7000FB6041F2DC13C2F200039B8B9BB29946CD
:102D800041F2DC13C2F200039B8C9BB21E4641F25F
:102D9000DC13C2F200039B8D9BB21D4641F2DC1393
:102DA000C2F200039B8E9BB21C4641F2DC13C2F2BE
:102DB00000039B8F9BB2184641F2DC13C2F2000362
:102DC000B3F844309BB2194641F2DC13C2F200035F
:102DD000B3F84C309BB21A4607F13C037B60CDF848
:102DE00000E0CDF804C0CDF80880CDF80CA0CDF8F7
:102DF00010B03B6A0593FB690693BB6907937B6937
:102E000008933B690993FB680A93CDF82C900C96C4
:102E10000D950E940F901091119278684FF2400129
:102E2000C0F60001BA6A7B6A0AF086FC4FF0000324
:102E3000C7F8483210E007F13C02D7F84832D318FF
:102E40001B785BB2D7F8482202F10102C7F848228A
:102E5000184605F00BFB2AE707F13C02D7F8483289
:102E6000D3181B78002B04D14FF00D0005F0FEFAAB
:102E7000EBE507F13C02D7F84832D3181B785BB278
:102E8000D7F8482202F10102C7F84822184605F097
:102E9000EDFAE1E740F20463C2F200031B68002B85
:102EA0001ED140F20C63C2F200031B68002B17D145
:102EB0004FF0C80000F034FF03E04FF0640000F072
:102EC0002FFF40F22C73C2F200031B689B78082B83
:102ED000F3D14FF0640000F023FF00F087FA01E027
:102EE00000F002F8FEE700BF80B584B000AF40F20A
:102EF0001063C2F200034FF000021A6040F2186340
:102F0000C2F200034FF0FF021A6000F06BFD4FF0B9
:102F1000C80000F005FF03E04FF0640000F000FF80
:102F200040F22C73C2F200031B689B78082BF3D18C
:102F30004FF00003FB6036E0FB6803F16403FB60C5
:102F4000FA6844F6D353C1F2620383FB02134FEADB
:102F5000E3114FEAE273CB1A4FF4FA6101FB03F37A
:102F6000D31A002B1BD140F20463C2F200031A688B
:102F700040F20C63C2F200031B684FF28C20C0F6D3
:102F8000000011461A4604F079FC4FF0320000F0C0
:102F9000C7FE4FF2A820C0F6000004F06FFC4FF00F
:102FA000640000F0BDFE40F20463C2F200031B683F
:102FB000B3F1FF3F0FD040F20C63C2F200031B6875
:102FC000B3F1FF3F07D040F22C73C2F200031B683D
:102FD000DB78002BB0D040F22C73C2F200031B68E8
:102FE000DB7803F00803002B0DD040F20463C2F23B
:102FF00000034FF0FF321A6040F20C63C2F200038C
:103000004FF0FF321A6040F20463C2F200031B6803
:10301000B3F1FF3F37D14FF2C020C0F6000004F0FB
:103020002DFC40F21563C2F200034FF001021A704A
:1030300000F062FA40F21563C2F200034FF00002A2
:103040001A7003E04FF0640000F06AFE00F0BCFB71
:103050000346002BF6D000F035FE03461A4640F238
:103060001063C2F200031A6000F08EFB0346002BCF
:1030700004D04FF0000000F045FA03E04FF00000EC
:1030800000F04AFAFEE700F0ADFB0346002B00F02B
:10309000A88140F20463C2F200031B68002B06D132
:1030A00040F20463C2F200034FF001021A6000F024
:1030B0008BFB0346002B3ED14FF00003BB6000E0CA
:1030C00000BF4FF0640000F02BFE40F22C73C2F200
:1030D00000031B68DB7803F00803002B03D04FF0DC
:1030E000060000F035FBBB6803F16403BB60BA68FF
:1030F00044F6D353C1F2620383FB02134FEAE31198
:103100004FEAE273CB1A4FF4FA6101FB03F3D31ACF
:10311000002BD5D14FF2E820C0F6000004F0AEFB42
:103120004FF0320000F0FCFD4FF20C30C0F6000012
:1031300004F0A4FBC5E700F027FB0346002B00F0DA
:103140000A814FF000037B6086E04FF0640000F0DE
:10315000E7FD40F22C73C2F200031B68DB7803F03A
:103160000803002B23D040F22C73C2F200031B682B
:10317000DB7823F07F03DBB24FF00200194600F04A
:10318000BDFA40F22C73C2F200031B68DB7803F037
:103190004003002B0CBF00230123DBB24FF00100E2
:1031A000194600F0ABFA4FF00B0000F0D1FA7B6843
:1031B00003F164037B607A6844F6D353C1F262037F
:1031C00083FB02134FEAE3114FEAE273CB1A4FF489
:1031D000FA6101FB03F3D31A002B3DD140F20463E3
:1031E000C2F200031A6840F20C63C2F200031B68CB
:1031F0004FF28C20C0F6000011461A4604F03EFB48
:103200004FF0320000F08CFD40F20463C2F2000384
:103210001A6840F20C63C2F200031B684FF22C30B4
:10322000C0F6000011461A4604F028FB4FF03200A9
:1032300000F076FD40F20463C2F200031A6840F227
:103240000C63C2F200031B684FF26030C0F600004E
:1032500011461A4604F012FB40F22C73C2F200032E
:103260001B68DB7803F00103002B0AD140F22C73BA
:10327000C2F200031B68DB7803F00203002B3FF46B
:1032800064AF40F21463C2F200031B78002B20D11C
:1032900040F22C73C2F200031B685B7B002B18D139
:1032A00040F22C73C2F200031B689B7B002B10D1F1
:1032B00040F22C73C2F200031B685B7E002B08D126
:1032C00040F22C73C2F200031B689B7E002B3FF47C
:1032D0003CAF40F20463C2F200031B68012B2FD005
:1032E00040F21063C2F200034FF000021A6040F295
:1032F0001863C2F200034FF0FF021A6000F0E2FC14
:1033000003461A4640F21063C2F200031A6040F20C
:103310001563C2F200034FF001021A7000F0ECF8DE
:1033200040F21563C2F200034FF000021A7040F23F
:103330000463C2F200031B68184600F0E3F809E0DA
:103340004FF001004FF0010100F0D8F94FF00300F9
:1033500000F0FEF9FEE740F20C63C2F200031B68C6
:10336000002B3ED000F010FA0346002B39D140F27A
:103370001063C2F200034FF000021A6040F21863BB
:10338000C2F200034FF0FF021A6040F20C63C2F277
:1033900000031A6840F20463C2F200031A6000F0EE
:1033A00091FC03461A4640F21063C2F200031A6011
:1033B00040F21563C2F200034FF001021A7000F0F0
:1033C0009BF840F21563C2F200034FF000021A703E
:1033D00040F20C63C2F200031B68184600F09CF830
:1033E000FEE74FF47A7000F09BFCFAE780B500AF7F
:1033F00000F082F84FF0000000F084F84FF0000079
:1034000000F08AF84FF00103184680BD80B588B0FF
:1034100008AF4FF0FF304FF0FF3100F047FA4FF0A8
:10342000000000F067FA4FF28830C0F6000000F0AC
:1034300001FA4FF0010300934FF0010301934FF0A5
:10344000010302934FF0010303934FF00003049331
:103450004FF0000305934FF0000306934FF0000375
:1034600007934FF001004FF001014FF001024FF0C0
:10347000010302F0A3FF4FF0050300934FF0060392
:1034800001934FF0070302934FF0080303934FF0AB
:10349000090304934FF00A0305934FF001004FF026
:1034A00002014FF003024FF0040306F0B9FA4FF0A7
:1034B000000300934FF0000301934FF000030293C9
:1034C0004FF0000303934FF0000304934FF0000309
:1034D00005934FF000004FF000014FF000024FF055
:1034E000000306F0A1FB44F61760C5F62700FDF7C0
:1034F00037FABD4680BD00BF80B400AFBD4680BC7A
:10350000704700BF80B483B000AF786007F10C074C
:10351000BD4680BC704700BF80B590B008AF7860F2
:103520004FF0020300934FF0060301934FF009039D
:1035300002934FF0000303934FF0000304934FF006
:10354000000305934FF0000306934FF001004FF086
:1035500003014FF002024FF0030303F0D9FD4FF0D7
:1035600001004FF006014FF0010204F031F803466C
:10357000FB614FF001004FF006014FF0020204F032
:1035800027F80346BB614FF001004FF005014FF0F3
:10359000020204F01DF803467B614FF001004FF07A
:1035A00005014FF0010204F013F803463B614FF0B0
:1035B000010002F0D7FF0346FB60BB69012B02D17B
:1035C00000F018F807E0FB69002B02D000F022F8A9
:1035D00001E000F02FF87B69012B02D100F03AF8EE
:1035E0009EE73B69002B02D000F050F898E700F00E
:1035F00069F895E780B500AF4FF001006FF07E01EC
:1036000003F064FD4FF00A006FF07E0103F05EFDF1
:1036100080BD00BF80B500AF4FF001004FF07F01CB
:1036200003F054FD4FF00A004FF07F0103F04EFD10
:1036300080BD00BF80B500AF4FF001004FF000012A
:1036400003F044FD4FF00A004FF0000103F03EFD8F
:1036500080BD00BF80B500AF4FF007006FF07E0166
:1036600003F034FD4FF008004FF07F0103F02EFD12
:103670004FF004004FF07F0103F028FD4FF00500EC
:103680006FF07E0103F022FD80BD00BF80B500AF6A
:103690004FF007004FF07F0103F018FD4FF00800D6
:1036A0006FF07E0103F012FD4FF004006FF07E0119
:1036B00003F00CFD4FF005004FF07F0103F006FD15
:1036C00080BD00BF80B500AF4FF004004FF0000197
:1036D00003F0FCFC4FF005004FF0000103F0F6FC96
:1036E0004FF007004FF0000103F0F0FC4FF008002E
:1036F0004FF0000103F0EAFC80BD00BF80B582B04E
:1037000000AF02460B46FA807B71FA887B794FF452
:10371000E050C4F2010011461A4607F0A7FC07F179
:103720000807BD4680BD00BF80B582B000AF03462C
:10373000FB80FB884FF4E050C4F20100194607F00B
:1037400059FC0346184607F10807BD4680BD00BF77
:1037500080B582B000AF0346FB7103F00FF8FB7930
:10376000012B02D0FB79022B01D100F0B7F94FF009
:1037700010004FF00101FFF7C1FF4FF0010080F38F
:10378000108808F049F8FEE780B500AF40F2046306
:10379000C2F200031B68002B0ADD4FF00100FFF7A7
:1037A000C3FF0346002B14BF00230123DBB209E053
:1037B0004FF00100FFF7B8FF0346002B0CBF0023BA
:1037C0000123DBB2184680BD80B500AF4FF0020088
:1037D000FFF7AAFF0346002B14BF00230123DBB22F
:1037E000184680BD80B400AF40F20463C2F200030B
:1037F0001B68002B17DB40F20C63C2F200031B684E
:10380000002B10DB40F20463C2F200031B68002BA4
:1038100006DC40F20C63C2F200031B68002B02DDE1
:103820004FF0010301E04FF000031846BD4680BC95
:10383000704700BF80B584B000AF78604FF00003E0
:10384000FB600CE040F20003C2F20003FA689B1830
:103850004FF020021A70FB6803F10103FB60FB6864
:10386000072BEFDD7868FDF72FF90346BB60BB68D7
:10387000082B17DC4FF00003FB600FE0FB687A6851
:10388000D3181B78DAB240F20003C2F20003F968E1
:103890005B181A70FB6803F10103FB60FA68BB68F0
:1038A0009A42EBDB07F11007BD4680BD80B483B0C0
:1038B00000AF786039607B68B3F1FF3F03D03B68AD
:1038C000B3F1FF3F05D14FF0FF337B604FF0FF3383
:1038D0003B6040F20463C2F200037A681A6040F26F
:1038E0000C63C2F200033A681A6007F10C07BD4688
:1038F00080BC704780B483B000AF0346FB7140F2D8
:103900000863C2F20003FA791A7007F10C07BD468A
:1039100080BC704780B500AF40F20463C2F2000380
:103920001B68002B21DD00F0DDF9024640F2046344
:10393000C2F200031B689A4217D9FFF725FF03461E
:10394000002B06D04FF001004FF00101FFF7D6FE2B
:103950000BE04FF001004FF00001FFF7CFFE4FF0FA
:1039600002004FF00101FFF7C9FE4FF001031846B6
:1039700080BD00BF80B500AF4FF00400FFF7D4FE5C
:103980000346002B0CBF00230123DBB2184680BD89
:1039900080B582B000AF02460B46FA71BB71FB796D
:1039A000002B11D04FF004004FF00101FFF7A6FEED
:1039B000BB79C82B14BF00230123DBB24FF02000DA
:1039C0001946FFF79BFE05E04FF004004FF00001A1
:1039D000FFF794FE4FF00400FFF7BAFE07F1080767
:1039E000BD4680BD80B483B000AF4FF47843C0F6CD
:1039F00005033B6040F22063C2F200034FF0000277
:103A00001A604FF000037B602FE07A684FF4FC43AC
:103A1000C0F20123D3184FEA83033B603B681B6865
:103A2000B3F1FF3F12D07B6803F101023B681968D4
:103A300040F22063C2F2000343F8221040F27563A3
:103A4000C2F200034FF001021A700AE07B6803F132
:103A5000010240F22063C2F200034FF0000143F87C
:103A600022107B6803F101037B607B68132BCCDDA4
:103A70004FF00003184607F10C07BD4680BC7047A5
:103A800080B485B000AF0346FB714FF00003FB73B9
:103A900019E0FA7B41F25823C2F200034FEA821286
:103AA0009B189B78FA799A4209D1FA7B41F2582304
:103AB000C2F200034FEA82129B185B7808E0FB7B9E
:103AC00003F10103FB73FB7B092BE2D94FF00003E9
:103AD000184607F11407BD4680BC704780B584B016
:103AE00000AF4FF00003BB734FF00003FB7312E015
:103AF000FB7B03F1010240F22063C2F2000353F8A2
:103B00002230002B03D04FF00103BB7306E0FB7B98
:103B100003F10103FB73FB7B132BE9D94FF0000387
:103B20007B734FF00003FB7319E0FA7B41F2DC1367
:103B3000C2F2000353F832301A46F97B41F22C23CB
:103B4000C2F2000353F82130D318002B03D04FF0FA
:103B500001037B7306E0FB7B03F10103FB73FB7B3B
:103B6000092BE2D940F27663C2F200031B78002BE6
:103B700005D07B7B002B02D04FF0010301E04FF01A
:103B80000003DAB240F27663C2F200031A7040F228
:103B90007563C2F200031B78002B0CD1BB7B002B9A
:103BA00009D140F27663C2F200031B78002B02D1E8
:103BB0004FF0FF0380E04FF47843C0F605037B60CD
:103BC00006F0B8FF4FF0350007F08EF84FF478405C
:103BD000C0F6050006F0D8FF0346FB7040F275639F
:103BE000C2F200031B78002B02D1BB7B002B22D03A
:103BF0004FF00003FB731BE0FA7B4FF4FC43C0F271
:103C00000123D3184FEA83037B60FB7B03F101029E
:103C100040F22063C2F2000353F82230786819465C
:103C200006F0FEFF0346FB70FB7B03F10103FB7311
:103C3000FB7B132BE0D940F27663C2F200031B78C2
:103C4000002B35D04FF00003FB732EE0FA7B47F6D4
:103C50001463C0F20123D3184FEA83037B60FA7B1D
:103C600041F2DC13C2F2000353F83230BB60FB7B3D
:103C70001846FFF705FF0346022B03D1BB68C3F1CB
:103C80000003BB60FA7B41F22C23C2F2000353F81D
:103C90002220BB68D3187868194606F0C1FF034696
:103CA000FB70FB7B03F10103FB73FB7B092BCDD97D
:103CB00006F058FF4FF00003184607F11007BD4605
:103CC00080BD00BF80B483B000AF40F28863C2F211
:103CD00000031B687B607B68184607F10C07BD4634
:103CE00080BC704780B483B000AF40F28863C2F2FA
:103CF00000031B687B6040F21063C2F200031B6884
:103D00007A68D21A44F6D353C1F26203A3FB0213BA
:103D10004FEA9313184607F10C07BD4680BC704765
:103D200080B483B000AF78607B68002B1FDD7B68B8
:103D300003F00703002B03D17B6803F101037B60D1
:103D40007A6840F28063C2F200031A6040F2846332
:103D5000C2F200034FF001021A7000BF40F2846308
:103D6000C2F200031B78DBB2002BF7D100E000BFEA
:103D700007F10C07BD4680BC704700BF80B582B01C
:103D800000AF40F28863C2F200031B6803F1010236
:103D900040F28863C2F200031A6040F28463C2F208
:103DA00000031B78DBB2002B19D040F28063C2F213
:103DB00000031B6803F1FF3240F28063C2F200038C
:103DC0001A6040F28063C2F200031B68002B06D128
:103DD00040F28463C2F200034FF000021A7004F054
:103DE00019FB78607B68002B04DB7B68DBB218462C
:103DF00004F08CFB04F028FD05F0E6F840F2A8631F
:103E0000C2F200035B78DBB2002B0BD040F28C6374
:103E1000C2F200035B6803F1010240F28C63C2F25C
:103E200000035A6040F2A863C2F200039B78DBB241
:103E3000002B0BD040F28C63C2F200039B6803F1AD
:103E4000010240F28C63C2F200039A6040F2A86360
:103E5000C2F20003DB78DBB2002B0BD040F28C63A4
:103E6000C2F20003DB6803F1010240F28C63C2F28C
:103E70000003DA6040F2A863C2F200031B79DBB2F0
:103E8000002B0BD040F28C63C2F200031B6903F1DC
:103E9000010240F28C63C2F200031A6140F2A8638F
:103EA000C2F200035B79DBB2002B0BD040F28C63D3
:103EB000C2F200035B6903F1010240F28C63C2F2BB
:103EC00000035A6140F2A863C2F200039B79DBB29F
:103ED000002B0BD040F28C63C2F200039B6903F10C
:103EE000010240F28C63C2F200039A6140F2B063B7
:103EF000C2F200031B68002B22D040F2B463C2F26E
:103F000000031B6803F1FF3240F2B463C2F2000306
:103F10001A6040F2B463C2F200031B68002B0FD199
:103F200040F2B063C2F200031B68984740F2B863E6
:103F3000C2F200031A6840F2B463C2F200031A60CE
:103F400040F2BC63C2F200031B68002B22D040F297
:103F5000C063C2F200031B6803F1FF3240F2C0638A
:103F6000C2F200031A6040F2C063C2F200031B6891
:103F7000002B0FD140F2BC63C2F200031B689847CC
:103F800040F2C463C2F200031A6840F2C063C2F296
:103F900000031A6040F2C863C2F200031B68002BE2
:103FA00022D040F2CC63C2F200031B6803F1FF325F
:103FB00040F2CC63C2F200031A6040F2CC63C2F25A
:103FC00000031B68002B0FD140F2C863C2F200034C
:103FD0001B68984740F2D063C2F200031A6840F2AF
:103FE000CC63C2F200031A6040F2D463C2F2000351
:103FF0001B68002B22D040F2D863C2F200031B687A
:1040000003F1FF3240F2D863C2F200031A6040F2BB
:10401000D863C2F200031B68002B0FD140F2D463B7
:10402000C2F200031B68984740F2DC63C2F200034F
:104030001A6840F2D863C2F200031A6040F2E063EB
:10404000C2F200031B68002B22D040F2E463C2F2EC
:1040500000031B6803F1FF3240F2E463C2F2000385
:104060001A6040F2E463C2F200031B68002B0FD118
:1040700040F2E063C2F200031B68984740F2E86335
:10408000C2F200031A6840F2E463C2F200031A604D
:1040900040F2EC63C2F200031B68002B22D040F216
:1040A000F063C2F200031B6803F1FF3240F2F063D9
:1040B000C2F200031A6040F2F063C2F200031B6810
:1040C000002B0FD140F2EC63C2F200031B6898474B
:1040D00040F2F463C2F200031A6840F2F063C2F2E5
:1040E00000031A6040F20463C2F200031B68002B55
:1040F00000F08F8040F21063C2F200031B68002BB7
:1041000000F0878040F20463C2F200031B68002BBA
:104110002DDD40F22C73C2F200031B68DB7803F044
:104120000803002B23D040F22C73C2F200031B685B
:10413000DB7823F07F03DBB24FF002001946FFF774
:10414000DDFA40F22C73C2F200031B68DB7803F047
:104150004003002B0CBF00230123DBB24FF0010012
:104160001946FFF7CBFA4FF00A00FFF7F1FAFFF715
:104170002BFB0346FB7040F21C63C2F200031B786A
:10418000FA789A4214D040F21C63C2F200031B7802
:10419000FF2B06D140F21C63C2F20003FA781A70BA
:1041A00006E0FB78002B03D14FF00100FFF7D0FAB7
:1041B000FB78002B2DD0FFF7ADFB0346002B28D05A
:1041C000FFF7E2FA03461A4640F21863C2F2000310
:1041D0001B689A421DD040F21863C2F200031B68AC
:1041E000FF2B09D1FFF7D0FA03461A4640F21863B5
:1041F000C2F200031A600CE0FFF7C6FA03461A4643
:1042000040F21863C2F200031A604FF00200FFF799
:104210009FFA40F27463C2F200031B78012B1FD196
:1042200040F22073C2F200031A6840F2F3139A427C
:104230000ADD40F22073C2F200034FF000021A6060
:104240004FF00B0002F0B0F940F22073C2F200030D
:104250001B6803F1010240F22073C2F200031A60EE
:1042600040F22473C2F200031B68032B08DD40F206
:104270002473C2F200034FF000021A6005F0A0FAA6
:1042800040F22473C2F200031B6803F1010240F202
:104290002473C2F200031A6040F20803C2F2000362
:1042A0001B68032B40F3858040F20803C2F2000331
:1042B0004FF000021A6040F2F863C2F200031B687C
:1042C000002B22D040F2FC63C2F200031B6803F112
:1042D000FF3240F2FC63C2F200031A6040F2FC635A
:1042E000C2F200031B68002B0FD140F2F863C2F248
:1042F00000031B68984740F20073C2F200031A687B
:1043000040F2FC63C2F200031A6040F20473C2F28E
:1043100000031B68002B22D040F20873C2F2000396
:104320001B6803F1FF3240F20873C2F200031A6007
:1043300040F20873C2F200031B68002B0FD140F259
:104340000473C2F200031B68984740F20C73C2F278
:1043500000031A6840F20873C2F200031A6040F2C8
:104360001073C2F200031B68002B22D040F21473BA
:10437000C2F200031B6803F1FF3240F21473C2F271
:1043800000031A6040F21473C2F200031B68002B92
:104390000FD140F21073C2F200031B68984740F23D
:1043A0001873C2F200031A6840F21473C2F20003D9
:1043B0001A6040F20803C2F200031B6803F1010215
:1043C00040F20803C2F200031A6007F10807BD4675
:1043D00080BD00BF80B500AF4FF080404FF00801B6
:1043E00008F0C8F80346002B00F0B9804FF0804079
:1043F00008F0B2F803461A4640F27863C2F20003AE
:104400001A804FF080434FF000029A8440F21D73EF
:10441000C2F200031B78002B06D140F27A63C2F28D
:1044200000034FF001021A8040F21D73C2F2000334
:104430001B78002B76D040F27863C2F200031A8812
:1044400042F227339A426DD840F27863C2F20003F9
:104450001B88B3F5915F1CD940F27A63C2F2000366
:104460001A88114640F27863C2F200031B88A3F554
:10447000915398B240F64043C2F2000323F8110072
:1044800002F101039AB240F27A63C2F200031A8089
:1044900026E040F27863C2F200031A8840F2CF733C
:1044A0009A4207D840F21D73C2F200034FF0000297
:1044B0001A7015E040F27A63C2F200031A881146BE
:1044C00040F64043C2F200034FF0010023F8110010
:1044D00002F101039AB240F27A63C2F200031A8039
:1044E00040F27A63C2F200031B88062B0CD140F223
:1044F0007F63C2F200031B7843F00403DAB240F298
:104500007F63C2F200031A7040F27A63C2F20003C2
:104510001B88062B06D940F21D73C2F200034FF030
:1045200000021A7040F27863C2F200031A8842F265
:1045300010739A420DD940F21D73C2F200031B782A
:10454000002B06D140F21D73C2F200034FF00102AE
:104550001A704FF080404FF0080108F03DF880BD20
:1045600080B500AF4FF48060C4F200004FF0080146
:1045700008F000F80346002B00F0BF804FF4806085
:10458000C4F2000007F0E8FF03461A4640F27863E1
:10459000C2F200031A804FF48063C4F200034FF0AC
:1045A00000029A8440F21C73C2F200031B78002BB5
:1045B00006D140F27C63C2F200034FF001021A8080
:1045C00040F21C73C2F200031B78002B76D040F23D
:1045D0007863C2F200031A8842F227339A426DD8F8
:1045E00040F27863C2F200031B88B3F5915F1CD9D7
:1045F00040F27C63C2F200031A88114640F27863ED
:10460000C2F200031B88A3F5915398B240F66843A9
:10461000C2F2000323F8110002F101039AB240F242
:104620007C63C2F200031A8026E040F27863C2F293
:1046300000031A8840F2CF739A4207D840F21C73E5
:10464000C2F200034FF000021A7015E040F27C63E2
:10465000C2F200031A88114640F66843C2F2000312
:104660004FF0010023F8110002F101039AB240F269
:104670007C63C2F200031A8040F27C63C2F2000342
:104680001B88062B0CD140F27F63C2F200031B781B
:1046900043F00803DAB240F27F63C2F200031A70FB
:1046A00040F27C63C2F200031B88062B06D940F25D
:1046B0001C73C2F200034FF000021A7040F27863DC
:1046C000C2F200031A8842F210739A420DD940F2E6
:1046D0001C73C2F200031B78002B06D140F21C733E
:1046E000C2F200034FF001021A704FF48060C4F26E
:1046F00000004FF0080107F06FFF80BD80B483B069
:1047000000AF786040F2B063C2F200031A687B68C1
:104710009A4207D140F2B063C2F200034FF00002A8
:104720001A604EE040F2BC63C2F200031A687B6874
:104730009A4207D140F2BC63C2F200034FF000027C
:104740001A603EE040F2C863C2F200031A687B6858
:104750009A4207D140F2C863C2F200034FF0000250
:104760001A602EE040F2D463C2F200031A687B683C
:104770009A4207D140F2D463C2F200034FF0000224
:104780001A601EE040F2E063C2F200031A687B6820
:104790009A4207D140F2E063C2F200034FF00002F8
:1047A0001A600EE040F2EC63C2F200031A687B6804
:1047B0009A4206D140F2EC63C2F200034FF00002CD
:1047C0001A6007F10C07BD4680BC704780B582B007
:1047D00000AF786040F64413C2F200031B78002B50
:1047E00008D17B68DBB24FF46050C4F20100194677
:1047F00008F02AF840F64413C2F200031B78012B9C
:1048000008D17B68DBB24FF48840C4F2000019463F
:1048100008F01AF840F64413C2F200031B78022B8A
:1048200008D17B68DBB24FF49040C4F20000194617
:1048300008F00AF840F64413C2F200031B78002B7C
:104840000CD100BF4FF46050C4F201004FF0800162
:1048500008F020F80346002BF4D026E040F644137D
:10486000C2F200031B78012B0CD100BF4FF488402B
:10487000C4F200004FF0800108F00CF80346002B52
:10488000F4D012E040F64413C2F200031B78022B6E
:104890000BD100BF4FF49040C4F200004FF08001F4
:1048A00007F0F8FF0346002BF4D07B68184607F1A9
:1048B0000807BD4680BD00BF80B582B000AF00F0E4
:1048C0006BFB40F61C52C2F2000240F22873C2F2A7
:1048D00000031A6040F65C52C2F2000240F22C73F0
:1048E000C2F200031A6040F22873C2F200031B6890
:1048F00018464FF000014FF02002FBF7D3FF40F2C3
:104900002873C2F200031B684CF617121A8040F29B
:104910002873C2F200031B684FF002029A7040F243
:104920002873C2F200031B684FF001029A7740F22D
:104930002873C2F200031B684FF00002DA7040F2E5
:104940000863C2F200031B78002B0ED040F22873DC
:10495000C2F200031A6840F22873C2F200031B6817
:10496000DB7843F00103DBB2D37002F035FC4FF08B
:1049700000037B6023E040F22C73C2F200031A684C
:104980007B68D3184FF07F029A7140F22C73C2F209
:1049900000031A687B68D31803F110034FF07F02FD
:1049A0009A7040F22873C2F200031A687B68D31829
:1049B0004FF07F029A717B6803F101037B607B6893
:1049C000072BD8DD40F22C73C2F200031B684FF0B6
:1049D00000025A7340F22C73C2F200031B684FF0BE
:1049E00000029A7340F22C73C2F200031B684FF06E
:1049F00000025A7640F22C73C2F200031B684FF09B
:104A000000029A764FF000037B6015E040F69C436D
:104A1000C2F200037A684FF07F0123F8121040F6CB
:104A2000DC43C2F200037A684FF07F0123F81210D2
:104A30007B6803F101037B607B681F2BE6DD07F1D8
:104A40000807BD4680BD00BF80B582B000AF4FF003
:104A50000003BB7140F27F63C2F200031B7803F0D6
:104A60000403002B03D04FF0010000F0A7FB40F23D
:104A70007F63C2F200031B7803F00803002B03D00E
:104A80004FF0020000F09AFB4FF44060C4F20100C6
:104A90004FF4806106F08EFA0346002B0CD140F6ED
:104AA0004513C2F200031B7843F00103DAB240F66B
:104AB0004513C2F200031A704FF48050C4F2010093
:104AC0004FF4807106F076FA0346002B0CD140F6C5
:104AD0004513C2F200031B7843F00203DAB240F63A
:104AE0004513C2F200031A7040F27E63C2F2000363
:104AF0004FF000021A70BB79002B0AD140F27463A8
:104B0000C2F200031B78012B03D14FF00C0001F01F
:104B10004BFDBB7903F1010146F26763C6F26663A0
:104B200083FB01234FEAA3024FEAE173D21A134633
:104B30004FEA83039B184FEA4303CA1A1346BB711B
:104B400040F23173C2F200031B78002B0DD040F20B
:104B50003173C2F200031B7803F1FF33DAB240F283
:104B60003173C2F200031A7019E040F27F63C2F29F
:104B700000031B7823F00103DAB240F27F63C2F234
:104B800000031A7040F64513C2F200031B7823F0AD
:104B90000103DAB240F64513C2F200031A7040F284
:104BA0003273C2F200031B78002B0DD040F2327337
:104BB000C2F200031B7803F1FF33DAB240F2327322
:104BC000C2F200031A7019E040F27F63C2F20003E0
:104BD0001B7823F00203DAB240F27F63C2F20003D3
:104BE0001A7040F64513C2F200031B7823F002034B
:104BF000DAB240F64513C2F200031A7000F01EF953
:104C000040F22C73C2F200031B681A884CF617138B
:104C10009A4240F00E8140F22C73C2F200031B68EE
:104C20009B7803F00203002B02D000F025FA00E18C
:104C300040F22C73C2F200031B689B7803F004035C
:104C4000002B10D040F22873C2F200031B684FF013
:104C500008029A7040F22C73C2F200031B684FF0F6
:104C60000102DA77E5E040F22C73C2F200031B6820
:104C70009B78082B40F0DD8040F22873C2F20003DD
:104C80001B684FF008029A7040F22C73C2F20003C6
:104C90001B68DB7803F00803002B0CBF0023012303
:104CA0007B7140F20463C2F200031B68B3F1FF3F63
:104CB0002DD17B79002B2AD140F20163C2F200038F
:104CC0001B78012B23D14FF2B030C0F6000008F062
:104CD000EBFC40F21003C2F200034FF0FF021A7027
:104CE00040F21103C2F200034FF0FF021A704FF0BE
:104CF00002004FF00001FEF701FD4FF001004FF000
:104D00000001FEF7FBFC4FF00800FEF721FD40F22A
:104D10002C73C2F200031B68DB7803F00803002B3E
:104D20000CBF00230123DAB240F20163C2F2000398
:104D30001A7040F20463C2F200031B68B3F1FF3F34
:104D400050D140F22C73C2F200031B68DB7803F0F1
:104D50000803002B46D040F22C73C2F200031B68FC
:104D6000DB7803F04003002B0CBF002301233B71D1
:104D700040F21003C2F200031B783A799A420BD03A
:104D80003B794FF001001946FEF7B8FC40F21003E2
:104D9000C2F200033A791A7040F22C73C2F2000397
:104DA0001B68DB78DBB26FEA0303DBB24FEAD31395
:104DB000FB7040F21103C2F200031B78FA789A42AA
:104DC00010D0FB78002B14BF00230123DBB24FF07F
:104DD00002001946FEF792FC40F21103C2F20003F2
:104DE000FA781A704FF00003FB711FE0FA7940F275
:104DF0002C73C2F200031968FB79CB18997940F63D
:104E00009043C2F200039954FA7940F22C73C2F233
:104E100000031968FB79CB18997C40F69C53C2F2C9
:104E200000039954FB7903F10103FB71FB790B2B10
:104E3000DCD907F10807BD4680BD00BF80B584B04E
:104E400000AF4FF40060C4F201004FF4006106F0BF
:104E5000F1F84FF000037B604FF00003BB607EE091
:104E60004FF4C050C4F201004FF0010106F0F0F819
:104E700000BF4FF44050C4F201004FF0020107F0B0
:104E80002DF90346002BF4D040F61C53C2F2000368
:104E9000BA6833F812304FF44050C4F2010019469A
:104EA00007F000F900BF4FF44050C4F201004FF08A
:104EB000010107F013F90346002BF4D04FF44050E2
:104EC000C4F2010007F0FCF80346194640F65C53B3
:104ED000C2F20003BA6823F8121000BF4FF440502A
:104EE000C4F201004FF0020107F0F8F80346002B6E
:104EF000F4D04FF4C050C4F201004FF0010106F0AD
:104F000099F84FF00003FB6003E0FB6803F1010335
:104F1000FB60FB68952BF8DD7B6803F101037B6088
:104F20007B68042B17D14FF00003FB6003E0FB68A4
:104F300003F10103FB60FA6840F2E7339A42F6DDC1
:104F40004FF40060C4F201004FF4006106F080F8F5
:104F50004FF000037B60BB6803F10103BB60BB68DB
:104F60000F2B7FF77DAF40F22873C2F200031A685F
:104F700040F64613C2F200031B781946D17703F1BD
:104F80000103DAB240F64613C2F200031A7007F1C9
:104F90001007BD4680BD00BF80B584B000AF4FF0A4
:104FA0000103BB604FF000037B604FF4C050C4F2BC
:104FB00001004FF0010106F03DF84FF00003FB60E7
:104FC0000BE04FF44050C4F2010007F079F80346BB
:104FD0003B60FB6803F10103FB60FB68072BF0DD1E
:104FE0004FF00003FB600CE040F61C53C2F20003DC
:104FF000FA684FF07F0123F81210FB6803F10103F8
:10500000FB60FB680F2BEFDD2FE04FF0C800FEF7D1
:1050100087FE4FF4C050C4F201004FF0080105F0C4
:10502000C9FF0346002B0DD14FF4C050C4F201005C
:105030004FF0100105F0BEFF0346002B02D14FF0E8
:105040000003BB607B6803F101037B607B68322B4C
:105050000BDD4FF000037B60BB68002B05D04FF2E7
:10506000FC30C0F6000008F01FFBBB68002BCCD161
:1050700007F11007BD4680BD80B483B000AF40F299
:105080002C73C2F200031B689B7803F00103DBB2B0
:10509000002B25D040F22873C2F200031B684FF0AA
:1050A00003029A7040F22873C2F200031B684FF0AB
:1050B00000025A714FF00003FB710DE040F22873BB
:1050C000C2F200031A68FB79D3184FF07F029A717D
:1050D000FB7903F10103FB71FB79072BEED967E044
:1050E00040F22873C2F200031B684FF002029A706C
:1050F00040F22873C2F200031B684FF055025A7148
:1051000040F22873C2F200031A6840F20003C2F2B0
:1051100000031B78937140F22873C2F200031A68EF
:1051200040F20003C2F200035B78D37140F22873AF
:10513000C2F200031A6840F20003C2F200039B7837
:10514000137240F22873C2F200031A6840F200039F
:10515000C2F20003DB78537240F22873C2F20003FC
:105160001A6840F20003C2F200031B79937240F206
:105170002873C2F200031A6840F20003C2F200036F
:105180005B79D37240F22873C2F200031A6840F2CE
:105190000003C2F200039B79137340F22873C2F23A
:1051A00000031A6840F20003C2F20003DB79537374
:1051B00007F10C07BD4680BC704700BF90B587B0B3
:1051C00000AF0346FB71FB79012B2BD140F6404326
:1051D000C2F200033B6140F69C43C2F20003FB6055
:1051E00040F27F63C2F200031B7823F00403DAB2BB
:1051F00040F27F63C2F200031A7040F27F63C2F292
:1052000000031B7843F00103DAB240F27F63C2F27D
:1052100000031A7040F23173C2F200034FF005022E
:105220001A702AE040F66843C2F200033B6140F680
:10523000DC43C2F20003FB6040F27F63C2F2000372
:105240001B7823F00803DAB240F27F63C2F2000356
:105250001A7040F27F63C2F200031B7843F002032E
:10526000DAB240F27F63C2F200031A7040F2327386
:10527000C2F200034FF005021A704FF00103BB7534
:1052800040F23373C2F200031B7803F00803002BD3
:1052900002D04FF00003BB75BB7DFB7552E0FB7D78
:1052A0004FEA4303FA68D318FA7D4FEA420239699C
:1052B0008A1812881A80FB7D4FEA43033A69D31893
:1052C0001B881846FCF716FD034618462149FCF7D3
:1052D0001DFE0346BB60FB7D4FEA4303FA68D4180A
:1052E000B868FCF7AFFE03469BB22380FB7D4FEA14
:1052F0004303FA68D3181B88FF2B07D9FB7D4FEABD
:105300004303FA68D3184FF0FF021A80FB7D4FEA7F
:105310004303FA68D3181B887A2B0FD9FB7D4FEA19
:105320004303FA68D3181B88832B07D8FB7D4FEA09
:105330004303FA68D3184FF07F021A80FB7D03F114
:105340000103FB75FB7D062BA9D907F11C07BD46A0
:1053500090BD00BF0000604180B483B000AF4FF447
:105360006053C4F201031B889BB23B603B6803F0AF
:105370002003002B2FD04FF46053C4F201034FF4ED
:105380006052C4F20102128892B222F0200292B25C
:105390001A8040F23473C2F200037B607B681A68A3
:1053A0007B685B68D31A23F0FF03002B13D17B6863
:1053B0001B6803F0FF014FF46053C4F201039B88A4
:1053C0009BB2DAB27B685B181A727B681B6803F1C8
:1053D00001027B681A603B6803F08003002B4ED00B
:1053E0004FF46053C4F201034FF46052C4F201025F
:1053F000128892B222F0800292B21A8040F63C03E8
:10540000C2F200037B607B681A687B685B689A4223
:1054100020D04FF46053C4F201037A68526802F05E
:10542000FF0279688A18127A52B292B24FEAC252D7
:105430004FEAD25292B29A807B685B6803F1010214
:105440007B685A6040F20C03C2F200034FF0000286
:105450001A6014E040F20C03C2F200034FF00102A4
:105460001A604FF46053C4F201034FF46052C4F267
:105470000102928992B222F0800292B29A8107F1DF
:105480000C07BD4680BC704780B582B000AF06F007
:10549000D1F94FF4803006F01DFA06F05FFA0346AA
:1054A000FB71FB79012B33D14FF0100005F01EFB8F
:1054B0004FF0020005F0F6FA4FF0000006F0E8FAAF
:1054C0004FF0000006F028FB4FF4806006F002FB6E
:1054D0004FF4804006F044FB4FF480304FF4E0116D
:1054E00006F06EFA4FF0010006F090FA00BF4FF0A0
:1054F000390006F023FD0346002BF8D04FF00200E0
:1055000006F094FA00BF06F0B3FA0346082BFAD16E
:105510004FF001004FF0010106F02AFC4FF00700A8
:10552000C0F226004FF0010106F07EFC45F6FD209A
:10553000C0F220004FF0010106F048FC4FF02000BF
:105540004FF0010106F070FC4FF000504FF00101E8
:1055500006F06AFC4FF002004FF0010106F008FC73
:1055600007F10807BD4680BD80B582B000AF4FF09F
:1055700000604FF0000106F039F94FF01B033B715A
:105580004FF003037B714FF00303BB714FF0010336
:10559000FB7107F10403184606F076F84FF01C0380
:1055A0003B714FF000037B714FF00003BB714FF074
:1055B0000103FB7107F10403184606F065F84FF08C
:1055C0001D033B714FF001037B714FF00103BB7171
:1055D0004FF00103FB7107F10403184606F054F87D
:1055E0004FF01E033B714FF002037B714FF002033B
:1055F000BB714FF00103FB7107F10403184606F07D
:1056000043F84FF03A033B714FF001037B714FF0C9
:105610000303BB714FF00103FB7107F1040318464C
:1056200006F032F84FF025033B714FF003037B7116
:105630004FF00303BB714FF00103FB7107F104034B
:10564000184606F021F84FF026033B714FF0030394
:105650007B714FF00303BB714FF00103FB7107F146
:105660000403184606F010F84FF027033B714FF083
:1056700003037B714FF00303BB714FF00103FB7118
:1056800007F10403184605F0FFFF4FF4C06005F072
:10569000E7FF4FF017033B714FF000037B714FF0B2
:1056A0000003BB714FF00103FB7107F104031846BF
:1056B00005F0EAFF4FF01F033B714FF000037B71D1
:1056C0004FF00003BB714FF00103FB7107F10403BE
:1056D000184605F0D9FF4FF020033B714FF000034F
:1056E0007B714FF00003BB714FF00103FB7107F1B9
:1056F0000403184605F0C8FF07F10807BD4680BD42
:1057000080B588B000AF4FF6FF733B834FF00003C6
:10571000FB7607F118034FF40060C4F2010019464C
:1057200005F068FB07F118034FF44060C4F2010074
:10573000194605F05FFB07F118034FF48050C4F2DF
:105740000100194605F056FB07F118034FF4A0506D
:10575000C4F20100194605F04DFB07F118034FF4A0
:10576000C050C4F20100194605F044FB07F11803CC
:105770004FF4E050C4F20100194605F03BFB4FF036
:105780003F033B834FF00303BB764FF01003FB76E0
:1057900007F118034FF4E050C4F20100194605F078
:1057A00029FB40F61A60C0F21E004FF0010105F01F
:1057B00075FC4FF400733B834FF00303BB764FF04F
:1057C0001803FB7607F118034FF40060C4F20100E0
:1057D000194605F00FFB4FF480633B834FF0040341
:1057E000FB7607F118034FF40060C4F2010019467C
:1057F00005F000FB4FF020033B834FF00303BB7623
:105800004FF01803FB7607F118034FF4A050C4F2D1
:105810000100194605F0EEFA4FF040033B834FF0CC
:105820000403FB7607F118034FF4A050C4F2010003
:10583000194605F0DFFA4FF480633B834FF0030312
:10584000BB764FF01803FB7607F118034FF4805036
:10585000C4F20100194605F0CDFA4FF400633B8312
:105860004FF00403FB7607F118034FF48050C4F2A5
:105870000100194605F0BEFA4FF00F033B834FF0CD
:105880000003FB7607F118034FF40060C4F2010037
:10589000194605F0AFFA4FF00F033B834FF00003BA
:1058A000FB7607F118034FF48050C4F2010019464B
:1058B00005F0A0FA4FF0E0033B834FF00303BB7603
:1058C0004FF01803FB7607F118034FF40060C4F2A1
:1058D0000100194605F08EFA4FF400633B834FF048
:1058E0000303BB764FF01003FB7607F118034FF468
:1058F0000060C4F20100194605F07CFA4FF48063A1
:105900003B834FF04803FB7607F118034FF44060E8
:10591000C4F20100194605F06DFA4FF480733B8321
:105920004FF04803FB7607F118034FF48050C4F2A0
:105930000100194605F05EFA4FF44060C4F2010020
:105940004FF4807105F076FB4FF480733B834FF08A
:105950000303BB764FF01003FB7607F118034FF4F7
:105960004060C4F20100194605F044FA4FF000030C
:10597000FB771BE04FF44060C4F201004FF48071EC
:1059800005F066FB4FF00000FEF7CAF94FF44060E7
:10599000C4F201004FF4807105F04CFB4FF00000A1
:1059A000FEF7BEF9FB7F03F10103FB77FB7F272B9B
:1059B000E0D94FF440733B834FF00303BB764FF0C5
:1059C0001C03FB7607F118034FF44060C4F201009A
:1059D000194605F00FFA4FF460433B834FF028035C
:1059E000FB7607F118034FF48050C4F2010019460A
:1059F00005F000FA01F0F0FB40F29B133B834FF0FF
:105A00000303BB764FF01003FB7607F118034FF446
:105A1000A050C4F20100194605F0ECF94FF4A05370
:105A2000C4F201034FF00102C9F699125A604FF017
:105A300018033B834FF04803FB7607F118034FF43C
:105A4000C050C4F20100194605F0D4F94FF06103CB
:105A50003B834FF00303BB764FF01003FB7607F157
:105A600018034FF4C050C4F20100194605F0C2F902
:105A70004FF00003BB804FF48273FB804FF4006350
:105A80003B814FF000037B814FF00103BB814FF45A
:105A90000073FB814FF020033B824FF000037B82B9
:105AA0004FF00703BB8207F104034FF44050C4F2E8
:105AB0000100194606F08AFA4FF44050C4F2010082
:105AC0004FF0010106F0CEFA07F12007BD4680BD78
:105AD00080B58CB000AF42F24C43C4F201037B604E
